{
  "_format": "hh-sol-artifact-1",
  "contractName": "Token",
  "sourceName": "contracts/Token.sol",
  "abi": [
    {
      "inputs": [],
      "stateMutability": "nonpayable",
      "type": "constructor"
    },
    {
      "anonymous": false,
      "inputs": [
        {
          "indexed": true,
          "internalType": "address",
          "name": "owner",
          "type": "address"
        },
        {
          "indexed": true,
          "internalType": "address",
          "name": "spender",
          "type": "address"
        },
        {
          "indexed": false,
          "internalType": "uint256",
          "name": "value",
          "type": "uint256"
        }
      ],
      "name": "Approval",
      "type": "event"
    },
    {
      "anonymous": false,
      "inputs": [
        {
          "indexed": true,
          "internalType": "address",
          "name": "from",
          "type": "address"
        },
        {
          "indexed": true,
          "internalType": "address",
          "name": "to",
          "type": "address"
        },
        {
          "indexed": false,
          "internalType": "uint256",
          "name": "value",
          "type": "uint256"
        }
      ],
      "name": "Transfer",
      "type": "event"
    },
    {
      "inputs": [
        {
          "internalType": "address",
          "name": "",
          "type": "address"
        },
        {
          "internalType": "address",
          "name": "",
          "type": "address"
        }
      ],
      "name": "allowance",
      "outputs": [
        {
          "internalType": "uint256",
          "name": "",
          "type": "uint256"
        }
      ],
      "stateMutability": "view",
      "type": "function"
    },
    {
      "inputs": [
        {
          "internalType": "address",
          "name": "spender",
          "type": "address"
        },
        {
          "internalType": "uint256",
          "name": "value",
          "type": "uint256"
        }
      ],
      "name": "approve",
      "outputs": [
        {
          "internalType": "bool",
          "name": "",
          "type": "bool"
        }
      ],
      "stateMutability": "nonpayable",
      "type": "function"
    },
    {
      "inputs": [
        {
          "internalType": "address",
          "name": "owner",
          "type": "address"
        }
      ],
      "name": "balanceOf",
      "outputs": [
        {
          "internalType": "uint256",
          "name": "",
          "type": "uint256"
        }
      ],
      "stateMutability": "nonpayable",
      "type": "function"
    },
    {
      "inputs": [
        {
          "internalType": "address",
          "name": "",
          "type": "address"
        }
      ],
      "name": "balances",
      "outputs": [
        {
          "internalType": "uint256",
          "name": "",
          "type": "uint256"
        }
      ],
      "stateMutability": "view",
      "type": "function"
    },
    {
      "inputs": [],
      "name": "decimals",
      "outputs": [
        {
          "internalType": "uint256",
          "name": "",
          "type": "uint256"
        }
      ],
      "stateMutability": "view",
      "type": "function"
    },
    {
      "inputs": [],
      "name": "name",
      "outputs": [
        {
          "internalType": "string",
          "name": "",
          "type": "string"
        }
      ],
      "stateMutability": "view",
      "type": "function"
    },
    {
      "inputs": [],
      "name": "owner",
      "outputs": [
        {
          "internalType": "address",
          "name": "",
          "type": "address"
        }
      ],
      "stateMutability": "view",
      "type": "function"
    },
    {
      "inputs": [],
      "name": "symbol",
      "outputs": [
        {
          "internalType": "string",
          "name": "",
          "type": "string"
        }
      ],
      "stateMutability": "view",
      "type": "function"
    },
    {
      "inputs": [],
      "name": "totalSupply",
      "outputs": [
        {
          "internalType": "uint256",
          "name": "",
          "type": "uint256"
        }
      ],
      "stateMutability": "view",
      "type": "function"
    },
    {
      "inputs": [
        {
          "internalType": "address",
          "name": "to",
          "type": "address"
        },
        {
          "internalType": "uint256",
          "name": "value",
          "type": "uint256"
        }
      ],
      "name": "transfer",
      "outputs": [
        {
          "internalType": "bool",
          "name": "",
          "type": "bool"
        }
      ],
      "stateMutability": "nonpayable",
      "type": "function"
    },
    {
      "inputs": [
        {
          "internalType": "address",
          "name": "from",
          "type": "address"
        },
        {
          "internalType": "address",
          "name": "to",
          "type": "address"
        },
        {
          "internalType": "uint256",
          "name": "value",
          "type": "uint256"
        }
      ],
      "name": "transferFrom",
      "outputs": [
        {
          "internalType": "bool",
          "name": "",
          "type": "bool"
        }
      ],
      "stateMutability": "nonpayable",
      "type": "function"
    }
  ],
  "bytecode": "0x60806040526b033b2e3c9fd0803ce80000006002556040518060400160405280600581526020017f4d41594c4f000000000000000000000000000000000000000000000000000000815250600390816200005a9190620003bb565b506040518060400160405280600581526020017f4d41594c4f00000000000000000000000000000000000000000000000000000081525060049081620000a19190620003bb565b506012600555348015620000b457600080fd5b506002546000803373ffffffffffffffffffffffffffffffffffffffff1673ffffffffffffffffffffffffffffffffffffffff1681526020019081526020016000208190555033600660006101000a81548173ffffffffffffffffffffffffffffffffffffffff021916908373ffffffffffffffffffffffffffffffffffffffff160217905550620004a2565b600081519050919050565b7f4e487b7100000000000000000000000000000000000000000000000000000000600052604160045260246000fd5b7f4e487b7100000000000000000000000000000000000000000000000000000000600052602260045260246000fd5b60006002820490506001821680620001c357607f821691505b602082108103620001d957620001d86200017b565b5b50919050565b60008190508160005260206000209050919050565b60006020601f8301049050919050565b600082821b905092915050565b600060088302620002437fffffffffffffffffffffffffffffffffffffffffffffffffffffffffffffffff8262000204565b6200024f868362000204565b95508019841693508086168417925050509392505050565b6000819050919050565b6000819050919050565b60006200029c62000296620002908462000267565b62000271565b62000267565b9050919050565b6000819050919050565b620002b8836200027b565b620002d0620002c782620002a3565b84845462000211565b825550505050565b600090565b620002e7620002d8565b620002f4818484620002ad565b505050565b5b818110156200031c5762000310600082620002dd565b600181019050620002fa565b5050565b601f8211156200036b576200033581620001df565b6200034084620001f4565b8101602085101562000350578190505b620003686200035f85620001f4565b830182620002f9565b50505b505050565b600082821c905092915050565b6000620003906000198460080262000370565b1980831691505092915050565b6000620003ab83836200037d565b9150826002028217905092915050565b620003c68262000141565b67ffffffffffffffff811115620003e257620003e16200014c565b5b620003ee8254620001aa565b620003fb82828562000320565b600060209050601f8311600181146200043357600084156200041e578287015190505b6200042a85826200039d565b8655506200049a565b601f1984166200044386620001df565b60005b828110156200046d5784890151825560018201915060208501945060208101905062000446565b868310156200048d578489015162000489601f8916826200037d565b8355505b6001600288020188555050505b505050505050565b610f6180620004b26000396000f3fe608060405234801561001057600080fd5b50600436106100a95760003560e01c8063313ce56711610071578063313ce5671461017a57806370a08231146101985780638da5cb5b146101c857806395d89b41146101e6578063a9059cbb14610204578063dd62ed3e14610234576100a9565b806306fdde03146100ae578063095ea7b3146100cc57806318160ddd146100fc57806323b872dd1461011a57806327e235e31461014a575b600080fd5b6100b6610264565b6040516100c39190610ac4565b60405180910390f35b6100e660048036038101906100e19190610b7f565b6102f2565b6040516100f39190610bda565b60405180910390f35b6101046103e4565b6040516101119190610c04565b60405180910390f35b610134600480360381019061012f9190610c1f565b6103ea565b6040516101419190610bda565b60405180910390f35b610164600480360381019061015f9190610c72565b610610565b6040516101719190610c04565b60405180910390f35b610182610628565b60405161018f9190610c04565b60405180910390f35b6101b260048036038101906101ad9190610c72565b61062e565b6040516101bf9190610c04565b60405180910390f35b6101d061072a565b6040516101dd9190610cae565b60405180910390f35b6101ee610750565b6040516101fb9190610ac4565b60405180910390f35b61021e60048036038101906102199190610b7f565b6107de565b60405161022b9190610bda565b60405180910390f35b61024e60048036038101906102499190610cc9565b610944565b60405161025b9190610c04565b60405180910390f35b6003805461027190610d38565b80601f016020809104026020016040519081016040528092919081815260200182805461029d90610d38565b80156102ea5780601f106102bf576101008083540402835291602001916102ea565b820191906000526020600020905b8154815290600101906020018083116102cd57829003601f168201915b505050505081565b600081600160003373ffffffffffffffffffffffffffffffffffffffff1673ffffffffffffffffffffffffffffffffffffffff16815260200190815260200160002060008573ffffffffffffffffffffffffffffffffffffffff1673ffffffffffffffffffffffffffffffffffffffff168152602001908152602001600020819055508273ffffffffffffffffffffffffffffffffffffffff163373ffffffffffffffffffffffffffffffffffffffff167f8c5be1e5ebec7d5bd14f71427d1e84f3dd0314c0f7b2291e5b200ac8c7c3b925846040516103d29190610c04565b60405180910390a36001905092915050565b60025481565b6000816103f68561062e565b1015610437576040517f08c379a000000000000000000000000000000000000000000000000000000000815260040161042e90610db5565b60405180910390fd5b81600160008673ffffffffffffffffffffffffffffffffffffffff1673ffffffffffffffffffffffffffffffffffffffff16815260200190815260200160002060003373ffffffffffffffffffffffffffffffffffffffff1673ffffffffffffffffffffffffffffffffffffffff1681526020019081526020016000205410156104f6576040517f08c379a00000000000000000000000000000000000000000000000000000000081526004016104ed90610e21565b60405180910390fd5b816000808573ffffffffffffffffffffffffffffffffffffffff1673ffffffffffffffffffffffffffffffffffffffff16815260200190815260200160002060008282546105449190610e70565b92505081905550816000808673ffffffffffffffffffffffffffffffffffffffff1673ffffffffffffffffffffffffffffffffffffffff16815260200190815260200160002060008282546105999190610ea4565b925050819055508273ffffffffffffffffffffffffffffffffffffffff168473ffffffffffffffffffffffffffffffffffffffff167fddf252ad1be2c89b69c2b068fc378daa952ba7f163c4a11628f55a4df523b3ef846040516105fd9190610c04565b60405180910390a3600190509392505050565b60006020528060005260406000206000915090505481565b60055481565b60006106e46040518060400160405280600781526020017f6f776e65723a2000000000000000000000000000000000000000000000000000815250836040518060400160405280600f81526020017f62616c616e6365735b6f776e65725d00000000000000000000000000000000008152506000808773ffffffffffffffffffffffffffffffffffffffff1673ffffffffffffffffffffffffffffffffffffffff16815260200190815260200160002054610969565b6000808373ffffffffffffffffffffffffffffffffffffffff1673ffffffffffffffffffffffffffffffffffffffff168152602001908152602001600020549050919050565b600660009054906101000a900473ffffffffffffffffffffffffffffffffffffffff1681565b6004805461075d90610d38565b80601f016020809104026020016040519081016040528092919081815260200182805461078990610d38565b80156107d65780601f106107ab576101008083540402835291602001916107d6565b820191906000526020600020905b8154815290600101906020018083116107b957829003601f168201915b505050505081565b6000816107ea3361062e565b101561082b576040517f08c379a000000000000000000000000000000000000000000000000000000000815260040161082290610db5565b60405180910390fd5b816000808573ffffffffffffffffffffffffffffffffffffffff1673ffffffffffffffffffffffffffffffffffffffff16815260200190815260200160002060008282546108799190610e70565b92505081905550816000803373ffffffffffffffffffffffffffffffffffffffff1673ffffffffffffffffffffffffffffffffffffffff16815260200190815260200160002060008282546108ce9190610ea4565b925050819055508273ffffffffffffffffffffffffffffffffffffffff163373ffffffffffffffffffffffffffffffffffffffff167fddf252ad1be2c89b69c2b068fc378daa952ba7f163c4a11628f55a4df523b3ef846040516109329190610c04565b60405180910390a36001905092915050565b6001602052816000526040600020602052806000526040600020600091509150505481565b610a05848484846040516024016109839493929190610ed8565b6040516020818303038152906040527f91d1112e000000000000000000000000000000000000000000000000000000007bffffffffffffffffffffffffffffffffffffffffffffffffffffffff19166020820180517bffffffffffffffffffffffffffffffffffffffffffffffffffffffff8381831617835250505050610a0b565b50505050565b60008151905060006a636f6e736f6c652e6c6f679050602083016000808483855afa5050505050565b600081519050919050565b600082825260208201905092915050565b60005b83811015610a6e578082015181840152602081019050610a53565b60008484015250505050565b6000601f19601f8301169050919050565b6000610a9682610a34565b610aa08185610a3f565b9350610ab0818560208601610a50565b610ab981610a7a565b840191505092915050565b60006020820190508181036000830152610ade8184610a8b565b905092915050565b600080fd5b600073ffffffffffffffffffffffffffffffffffffffff82169050919050565b6000610b1682610aeb565b9050919050565b610b2681610b0b565b8114610b3157600080fd5b50565b600081359050610b4381610b1d565b92915050565b6000819050919050565b610b5c81610b49565b8114610b6757600080fd5b50565b600081359050610b7981610b53565b92915050565b60008060408385031215610b9657610b95610ae6565b5b6000610ba485828601610b34565b9250506020610bb585828601610b6a565b9150509250929050565b60008115159050919050565b610bd481610bbf565b82525050565b6000602082019050610bef6000830184610bcb565b92915050565b610bfe81610b49565b82525050565b6000602082019050610c196000830184610bf5565b92915050565b600080600060608486031215610c3857610c37610ae6565b5b6000610c4686828701610b34565b9350506020610c5786828701610b34565b9250506040610c6886828701610b6a565b9150509250925092565b600060208284031215610c8857610c87610ae6565b5b6000610c9684828501610b34565b91505092915050565b610ca881610b0b565b82525050565b6000602082019050610cc36000830184610c9f565b92915050565b60008060408385031215610ce057610cdf610ae6565b5b6000610cee85828601610b34565b9250506020610cff85828601610b34565b9150509250929050565b7f4e487b7100000000000000000000000000000000000000000000000000000000600052602260045260246000fd5b60006002820490506001821680610d5057607f821691505b602082108103610d6357610d62610d09565b5b50919050565b7f62616c616e636520746f6f206c6f770000000000000000000000000000000000600082015250565b6000610d9f600f83610a3f565b9150610daa82610d69565b602082019050919050565b60006020820190508181036000830152610dce81610d92565b9050919050565b7f616c6c6f77616e636520746f6f206c6f77000000000000000000000000000000600082015250565b6000610e0b601183610a3f565b9150610e1682610dd5565b602082019050919050565b60006020820190508181036000830152610e3a81610dfe565b9050919050565b7f4e487b7100000000000000000000000000000000000000000000000000000000600052601160045260246000fd5b6000610e7b82610b49565b9150610e8683610b49565b9250828201905080821115610e9e57610e9d610e41565b5b92915050565b6000610eaf82610b49565b9150610eba83610b49565b9250828203905081811115610ed257610ed1610e41565b5b92915050565b60006080820190508181036000830152610ef28187610a8b565b9050610f016020830186610c9f565b8181036040830152610f138185610a8b565b9050610f226060830184610bf5565b9594505050505056fea2646970667358221220c4e400ed30c419e90b1c8585eb2c70fa295839e9dd736f79b4cf8ce00977c90964736f6c63430008100033",
  "linkReferences": {},
  "deployedLinkReferences": {}
}